:04000000EAEF0AF029
:1000080000C01AF001C019F002C018F003C017F0C0
:1000180004C016F005C015F0E1CF21F0E2CF22F0C0
:10002800E9CF1FF0EACF20F0F5CF1EF0F8CF1BF094
:10003800F7CF1CF0F6CF1DF051EC0AF01EC0F5FF0B
:100048001BC0F8FF1CC0F7FF1DC0F6FF1AC000F068
:1000580019C001F018C002F017C003F016C004F070
:1000680015C005F01FC0E9FF20C0EAFF21C0E1FF6D
:0600780022C0E2FF1100AE
:10007E00000E056E040E066EBDC003F0000E046E7B
:10008E00033604360390033604360390BEC000F0E8
:10009E00000E016E0036013600900050032601500E
:1000AE00042203C001F004C002F0013601900236B2
:1000BE0001360190023601C003F002C004F0043292
:1000CE000332049E04BC048E04320332049E04BC2C
:1000DE00048E03C000F004C001F00036009001361B
:1000EE00003600900136055000260650012200C051
:1000FE0005F001C006F000C0E1FF01C0E2FFE69E80
:10010E000001BE51000A12E1BDC000F0000E016EEA
:10011E00003600900136390E0024E16E000E0120EB
:10012E00E26E05C0E6FF06C0E6FF11D0BDC000F0CE
:10013E00000E016E0036009001364B0E0024E16E6B
:10014E00000E0120E26E05C0E6FF06C0E6FF05C008
:10015E00E1FF06C0E2FFE69C040E0524E16E000EF0
:08016E000620E26EE68C12008F
:0E017600800E0001BD11006E00C02FF01200BF
:10018400BDC02CF0BEC02DF0BFC030F0C0C031F0F7
:10019400800E0001C111006E008000C02FF012001B
:1001A400BDC02CF0BEC02DF0BFC02EF0C0C030F0DA
:1001B400C1C031F0800E0001C211006E00C02FF0EA
:0201C400120027
:1001C60020C401F01F0E01160150010A01E08BD078
:1001D60004012451000A01E086D02151060A38E1C3
:1001E6002DD03450010A13E1040E0001BD6F160E26
:1001F600BE6F000EBF6F120EBD27000EBE23BF23BB
:10020600090EC06F000EC16F400EC26FC8DF20D04E
:100216003450010A0EE100012D0EBD6F160EBE6FA1
:10022600000EBF6F210EC06F000EC16F400EC26F71
:10023600B6DF0ED00001BD6B9BDF0AD0040123514F
:10024600210ACFE02351220AE3E02351230AF2E0F8
:1002560020C401F0600E0116050E006E005004E089
:100266000132019EFF0FFBD70150010A01E03BD08E
:1002760027D039D038D04F0E0001BD6F000EBE6FAB
:10028600010EBF6F000EC06F400EC16F78DF2BD01E
:100296000001BD6B6DDF23C44FF025D000019E0E1B
:1002A600BD6F000EBE6F010EBF6F000EC06FC16B3B
:1002B60066DF19D00001BD6B5BDF22C49EF013D050
:1002C60004012151010AD5E02151090AD3E0215147
:1002D600020AD1E021510A0ADBE02151030ADEE0DD
:0802E60021510B0AE7E01200B0
:1002EE00700EE16E0F0EE26E0001B851E126D8B02D
:1002FE00E22AB9C0E6FFB9A504D0B8C0BDF0BE6B06
:10030E00B7DEB9A305D0B8C0BDF0010EBE6FB0DE2A
:02031E001200CB
:100320000001B951000A12E0B8C000F0000E016EE1
:100330000036009001364B0E0024E96E000E0120BD
:10034000EA6EEECF04F0EECF05F011D0B8C000F0A9
:10035000000E016E003600900136390E0024E96E61
:10036000000E0120EA6EEECF04F0EECF05F0020E93
:100370000424E16E000E0520E26EBAC0E6FFBBC0A9
:10038000E6FF010E0424E16E000E0520E26EBCC003
:10039000E6FF04C0E9FF05C0EAFFEECF00F004C0AD
:1003A000E1FF05C0E2FF400E0014E66E04C0E9FF65
:1003B00005C0EAFFEECF00F004C0E1FF05C0E2FF98
:1003C000880E0010E66EB951000A1BE0B8C000F0BC
:1003D000000E016E0036009001364B0E0024026EB6
:1003E000000E0120036E02C0E9FF03C0EAFF040E05
:1003F000EE18006E02C0E1FF03C0E2FF00C0E6FF9E
:100400001AD0B8C000F0000E016E00360090013620
:10041000390E0024026E000E0120036E02C0E9FFB7
:1004200003C0EAFF040EEE18006E02C0E1FF03C035
:10043000E2FF00C0E6FF04C000F005C001F01200BA
:10044000385215E0010E0001B86F1E0EB96F4FDF74
:10045000010EB86FB96B90C0BAF091C0BBF0400EFE
:10046000BC6F5EDF00C092F001C093F014D00001B9
:10047000010EB86F1E0EB96F3ADF010EB86FB96B7F
:1004800090C0BAF091C0BBF0400EBC6F49DF00C015
:0804900092F001C093F012008C
:08049800385201E094DE12006D
:1004A000B2C002F0B3C003F0B5C000F0B6C001F0B6
:1004B000010E0001B55F000EB65B0050011009E0AF
:1004C00002C0E1FF03C0E2FFB4C0E6FF024A032A14
:0404D000EBD7120054
:1004D4000CD0B4DF3CD03BD0DDDF39D038D037D0BE
:1004E40036D035D0000033D032D0000E0001B3191D
:1004F40002E1010EB219EDE0000EB31902E1020EA1
:10050400B219E9E0000EB31902E1030EB219E4E0F6
:10051400B351000A02E1730EB219E0E0B351000ACC
:1005240002E1750EB219DBE0B351000A02E1740E68
:10053400B219D6E0B3513F0A02E1FF0EB219D1E07D
:10054400B351000A02E1720EB219CCE0CDD7010E0C
:04055400006E120023
:100558000B6A0A6A096A00500402F4CF09F0F3CF63
:1005680008F001500502F4CF0BF0F3CF0AF0005069
:100578000502F3500926F4500A22E86A0B220150BA
:100588000402F3500926F4500A22E86A0B2208C034
:1005980000F009C001F00AC002F00BC003F012001D
:1005A800F250026EF29E0500FF6A0150FE6E005086
:0805B800FD6E02BEF28E12007E
:1005C00004012051800AD8A471D0C00E2F6E64D0CF
:1005D000620E006E160E016E000E026E00C02CF050
:1005E00001C02DF002C02EF0120E306E000E316EE2
:1005F0005DD0030E006E000E016E22C404F0000EEA
:10060000056EAADF460E0024E96E000E0120EA6E98
:10061000EECF2CF0EECF2DF0EECF2EF0020E2C24EC
:10062000F66E000E2D20F76E000E2E20F86E0900DB
:10063000F5CF00F00900F5CF01F000C030F001C0A7
:1006400031F034D0030E225D23E2030E006E000E63
:10065000016E22C404F0000E056E7EDF3D0E002404
:10066000E96E000E0120EA6EEECF2CF0EECF2DF0F9
:10067000EECF2EF02CC0F6FF2DC0F7FF2EC0F8FFF6
:100680000900F5CF00F000C030F0000E316E01D04F
:100690002F6A0CD02F6A0AD02351010A99E0235106
:0E06A000020AA7E02351030ACDE0F4D71200AE
:1006AE002F8E710E0001B26F0F0EB36FB46B010E71
:1006BE00B56F000EB66FEDDE490EB26F000EB36F62
:1006CE00B46B010EB56F000EB66FE3DE22C434F0CC
:1006DE003450000A03E1100E4A6E0FD0200E4A6EFF
:1006EE00010EB26F000EB36F340EB46F000EB56F05
:0C06FE00010EB66F000EB76FE6DE1200B2
:10070A00000E315C02E1080E305C11E230C003F0E9
:10071A0031C004F000019D51000A03E1010E9D6FF2
:10072A0005D09D51010A02E1020E9D6F04D0080E08
:10073A00036E000E046E00014BC0E1FF4CC0E2FFE5
:10074A00E6924BC0E1FF4CC0E2FFE6904BC0E9FFE6
:10075A004CC0EAFFEECF00F04BC0E1FF4CC0E2FF15
:10076A0004500010E66E010E4B24E16E000E4C2080
:10077A00E26E03C0E6FF0350305C006E045031584D
:10078A00016E00C030F001C031F0280E9A6F040EDD
:10079A009B6F2FB02FD0035004102BE02CC0F6FF14
:1007AA002DC0F7FF2EC0F8FF0900F5CF00F09AC060
:1007BA00E1FF9BC0E2FF00C0E6FF9A4B9B2B010EB4
:1007CA002C24006E000E2D20016E000E2E20026ECB
:1007DA0000C02CF001C02DF002C02EF0010E035C07
:1007EA00006E000E0458016E00C003F001C004F050
:1007FA00D2D724D00350041021E02CC0E9FF2DC029
:10080A00EAFF9AC0E1FF9BC0E2FFEECFE6FF9A4BF8
:10081A009B2B010E2C24006E000E2D20016E00C0B1
:10082A002CF001C02DF0010E035C006E000E04587E
:0E083A00016E00C003F001C004F0DCD7120014
:1008480004012251010A11E120C401F01F0E011612
:100858000150000A0AE12F8E2151030A04E1010E1A
:1008680000019C6F02D000019C6B04012251000A18
:10087800D8A489D020C401F01F0E01160150020A25
:10088800D8A481D024C401F00F0E01160150000A2B
:10089800D8B479D02F8E24BF16D024C403F00F0EFD
:1008A800031603C000F0000E016E003600900136FA
:1008B800390E0024E96E000E0120EA6EEECF04F036
:1008C800EECF05F015D024C403F00F0E031603C0B5
:1008D80000F0000E016E0036009001364B0E002429
:1008E800E96E000E0120EA6EEECF04F0EECF05F0BF
:1008F8002151030A07E104C0E1FF05C0E2FF840EAD
:10090800E66E41D024C400F00F0E0016700E026E81
:100918000F0E036E00500226D8B0032A02C0E9FF6A
:1009280003C0EAFFEECF00F0EECF01F0009002C066
:10093800E1FF03C0E2FF00C0E6FF01C0E6FF24AF0D
:1009480011D004C0E1FF05C0E2FFE66A040E0418F6
:10095800006E00C004F004C0E1FF05C0E2FF400ED5
:10096800E66E11D004C0E1FF05C0E2FF880EE66E16
:10097800040E0418006E00C004F004C0E1FF05C0B6
:08098800E2FFC80EE66E12004A
:100990000401286B296B47D004012F8E28810001A8
:1009A0009C51010A02E10401288352D02F8E50D0BD
:1009B00004012F8E24BF16D024C403F00F0E03169B
:1009C00003C000F0000E016E003600900136390EB3
:1009D0000024E96E000E0120EA6EEECF04F0EECFA7
:1009E00005F015D024C403F00F0E031603C000F069
:1009F000000E016E0036009001364B0E0024E96EA9
:100A0000000E0120EA6EEECF04F0EECF05F004C038
:100A1000E9FF05C0EAFFEECF01F001A403D0040115
:100A2000010E286F15D020C401F01F0E01160150D1
:100A3000000AB2E020C401F01F0E01160150010AA5
:100A4000B5E020C401F01F0E01160150020AB0E00B
:100A50002FAE07D0280E2C6E040E2D6E2F80020EA6
:040A6000306E1200E2
:100A64000001946B4BC0E1FF4CC0E2FFE66A040E48
:100A74004B18E16E4CC0E2FF000EE21AE66A25AEA6
:100A840013D0000E006E2B1808E100502A1805E15F
:100A94000050291802E12850000A05E028C000F09F
:0A0AA40029C001F07FDD259E12003D
:100AAE00010E00019725E96E000E9821EA6EEECF39
:100ABE0000F000C0B0F0000E275C02E1B051265CE1
:100ACE0003E226C0B0F00AD0B051265C006E000ED4
:100ADE002758016E00C026F001C027F0B16BB0514F
:100AEE00B15D1CE2280EE96E040EEA6EB151E926E4
:100AFE00D8B0EA2AEECF00F023C0E1FF24C0E2FF17
:100B0E0000C0E6FF010E2324006E000E2420016EAD
:100B1E0000C023F001C024F0B12BE1D7000E006E0F
:100B2E002750005C02E12650000828E2010E9525B0
:100B3E00E16E000E9621E26E080EE66E020E95250F
:100B4E00E16E000E9621E26E280EE66E040EE66E43
:100B5E0097C0E9FF98C0EAFFEECF00F000BC07D0C7
:100B6E0095C0E1FF96C0E2FFC80EE66E06D095C0B6
:100B7E00E1FF96C0E2FF880EE66E2BD0010E9525A2
:100B8E00E16E000E9621E26E080EE66E020E9525BF
:100B9E00E16E000E9621E26E200EE66E040EE66EFB
:100BAE0095C0E1FF96C0E2FF840EE66E000E006E69
:100BBE002B1808E100502A1805E10050291802E10F
:100BCE002850000A05E028C000F029C001F0E5DC3D
:040BDE00259E12003E
:100BE20020C401F0600E0116050E006E005004E0F4
:100BF2000132019EFF0FFBD70150000A01E063D0D2
:100C02003FD02F8E080E4A6E5ED0D9DC5CD04EDD0E
:100C12005AD0340E2C6E000E2D6E2F80010E306EC7
:100C22002F8E51D0B4DE4FD00EDE4DD0490E006E65
:100C3200000E016E040124510026D8B0012A00C022
:100C42002CF001C02DF02F80010E306E2F8E3BD084
:100C52002F8E490EE16E000EE26E2451E126D8B0CD
:100C6200E22A22C4E6FF2FD0020E0001B26F000E6C
:100C7200B36FB46BB56BB66BB76B2BDC24D023D0E0
:100C820004012151050ABDE02151060ABEE02151AD
:100C9200090ABDE02151080ABCE02151000AC2E064
:100CA2002151010AC1E02151030ABEE021510A0A81
:100CB200BDE021510B0ACCE02151070AD5E02151B8
:080CC2000C0ADDE0DCD7120092
:100CCA006D982FBE4BD025AE29D0020E0001946F2D
:100CDA00010E4B24E16E000E4C20E26EE66A4BC018
:100CEA00E1FF4CC0E2FFC80EE66E010E9525E16EEB
:100CFA00000E9621E26E080EE66E020E9525E16E52
:100D0A00000E9621E26E280EE66E040EE66E95C07F
:100D1A00E1FF96C0E2FFC80EE66E1FD00001010E89
:100D2A009525E16E000E9621E26E080EE66E020E21
:100D3A009525E16E000E9621E26E200EE66E040EF7
:100D4A00E66E95C0E1FF96C0E2FF8C0EE66E4BC0E0
:100D5A00E1FF4CC0E2FF840EE66E7FD025BE7DD057
:100D6A00040120AF52D03150275D02E13050265D98
:100D7A0004E226C430F027C431F0C2DC010E0001BF
:100D8A00946F010E9525E16E000E9621E26E080E13
:100D9A00E66E020E9525E16E000E9621E26E200E99
:100DAA00E66E040EE66E95C0E1FF96C0E2FF800E85
:100DBA00E66E996B010E9725E16E000E9821E26EA0
:100DCA00080EE66E020E9725E16E000E9821E26E7D
:100DDA00200EE66E040EE66E97C0E1FF98C0E2FFB1
:100DEA00840EE66E010E996F020E4B24E16E000E20
:100DFA004C20E26E280EE66E040EE66E4BC0E1FF52
:100E0A004CC0E2FFC80EE66E28D00001020E946FB5
:100E1A00010E4B24E16E000E4C20E26EE66A4BC0D6
:100E2A00E1FF4CC0E2FFC80EE66E010E9525E16EA9
:100E3A00000E9621E26E080EE66E020E9525E16E10
:100E4A00000E9621E26E280EE66E040EE66E95C03E
:0C0E5A00E1FF96C0E2FFC80EE66E120039
:100E660000019451020A02E11FDE1FD0F8DD0001E5
:100E76009951000A19E1010E9525E16E000E9621A1
:100E8600E26E080EE66E020E9525E16E000E9621C4
:100E9600E26E200EE66E040EE66E95C0E1FF96C089
:0C0EA600E2FF8C0EE66E01D0996B12008A
:100EB2000001A951000A12E0A8C000F0000E016E64
:100EC2000036009001364B0E0024E96E000E012020
:100ED200EA6EEECF04F0EECF05F011D0A8C000F01C
:100EE200000E016E003600900136390E0024E96EC4
:100EF200000E0120EA6EEECF04F0EECF05F0020EF6
:100F02000424E16E000E0520E26EAAC0E6FFABC02B
:100F1200E6FF010E0424E16E000E0520E26EACC075
:100F2200E6FF04C0E9FF05C0EAFFEECF00F004C00F
:100F3200E1FF05C0E2FF400E0014E66E04C0E9FFC7
:100F420005C0EAFFEECF00F004C0E1FF05C0E2FFFA
:100F5200880E0010E66EA951000A1BE0A8C000F03E
:100F6200000E016E0036009001364B0E0024026E18
:100F7200000E0120036E02C0E9FF03C0EAFF040E67
:100F8200EE18006E02C0E1FF03C0E2FF00C0E6FF00
:100F92001AD0A8C000F0000E016E00360090013693
:100FA200390E0024026E000E0120036E02C0E9FF1A
:100FB20003C0EAFF040EEE18006E02C0E1FF03C098
:100FC200E2FF00C0E6FF04C000F005C001F012001D
:100FD200040E466E160E476E000E486E800E3D6E73
:100FE200160E3E6E000E3F6E740E406E160E416E71
:100FF200000E426E4E0E436E160E446E000E456E8D
:021002001200DA
:10100400000E0001A91902E1000EA81902E1016A0B
:1010140009D0A8C0E9FFA9C0EAFFEECF00F0016A39
:0A10240000BE012A01C000F0120016
:0A102E00D08EA28AA08AF28E120072
:10103800A8C002F0A9C003F0ABC000F0ACC001F03A
:10104800010E0001AB5F000EAC5B0050011009E01F
:1010580002C0E1FF03C0E2FFAAC0E6FF024A032A7A
:04106800EBD71200B0
:0E106C00160E6F6E9F0E6B6E7B0E696E12007D
:10107A004BC0E9FF4CC0EAFFEECF00F000AE05D04E
:10108A004BC0E1FF4CC0E2FFE66A00019D6B946B26
:10109A00306A316A2F6AA0DD030E0001B26F000EBA
:1010AA00B36FB46BB56BB66BB76B6AEC02F008DE64
:0210BA00120022
:1010BC004BC0E9FF4CC0EAFFEECF00F0000E00BCC5
:1010CC00010E0001AF6F040E4B18006E00C04BF008
:1010DC004A50080A0AE122C46EFF6E50000803E26F
:1010EC00100E4A6E02D0040E4A6E00019451010A91
:1010FC002CE1020E4B24E16E000E4C20E26E280E09
:10110C00006E040E016E00C0E6FF01C0E6FF85EC28
:10111C0003F000019D51020A07E14BC0E1FF4CC0F6
:10112C00E2FF840EE66E10D0AF51000A07E14BC00F
:10113C00E1FF4CC0E2FFC80EE66E06D04BC0E1FFEB
:0E114C004CC0E2FF880EE66E01D086DC120079
:10115A00740E0001B26F000EB36FB46BB56BB66B51
:10116A00B76B6AEC02F06D92699468A403D0FB0E27
:06117A006816FBD712000D
:04118000A19A12001E
:10118400200E4A5C03E36DB201D002D0006A23D082
:1011940092C0A8F093C0A9F033DF00521BE1010E06
:1011A4009225E96E000E9321EA6EEECF00F000C0A6
:1011B400A7F0A6C0A8F0A96BA3C0AAF0A4C0ABF086
:1011C400A5C0ACF074DE00C092F001C093F0A7C0DB
:0811D40000F001D0006A1200D6
:1011DC00FADE0001926B936B326A336A6A6A686A50
:1011EC003FDF6D8C6E6A710EA86F0F0EA96FAA6B24
:1011FC00010EAB6F000EAC6F19DF6D9CA36B080E6C
:10120C00A35D16E2A3C000F0000E016E0036009044
:10121C000136003600900136000E0024E16E040EFB
:10122C000120E26EE66AE66AE66AE66AA32BE7D775
:10123C00160E706E68A603D0F70E6816FBD72F6AD1
:10124C00256A266A276A6D98080E4B6E040E4C6E42
:06125C00346A4A6A120028
:101262004A50000A0AE16D6A696AFFDEDFDE6DB686
:0C12720002D06D86FCD7010E4A6E1200FF
:10127E006984EF0E68166D82750E0001B26F000E56
:10128E00B36FB46BB56BB66BB76B6AEC02F0120052
:10129E0099DE0001926B936B326A336A6A6A686AEE
:1012AE00DEDE6D8C6E6A710EB26F0F0EB36FB46BA5
:1012BE00010EB56F000EB66F50EC02F06D9CAE6B6A
:1012CE00080EAE5D16E2AEC000F0000E016E0036E6
:1012DE0000900136003600900136000E0024E16EBB
:1012EE00040E0120E26EE66AE66AE66AE66AAE2B54
:1012FE00E7D7160E706E68A603D0F70E6816FBD7EA
:10130E002F6A256A266A276A6D98080E4B6E040EA0
:08131E004C6E346A4A6A1200A9
:10132600FD0E3514016E026AFF0E0216000E02183B
:1013360002E1000E01186CE17E0E3514016E01C04B
:1013460003F00332039E03C000F0000E016E003668
:1013560000900136003600900136000E0024026E21
:10136600040E0120036E02C097F003C098F002C07D
:1013760095F003C096F0040E00019519006E00C0AA
:1013860095F002C0E9FF03C0EAFFEECF00F000C00F
:1013960001F03C0E01160132019E0132019E015000
:1013A6000D0A34E1020E9725E96E000E9821EA6EC9
:1013B600EECF01F0EECF02F00250040A02E1280E51
:1013C600011822E1020E9725E16E000E9821E26EC9
:1013D600200EE66E040EE66EAE6B080EAE5D14E2EF
:1013E600200EE16E040EE26EAE51E126D8B0E22A7E
:1013F600280EE96E040EEA6EAE51E926D8B0EA2A46
:10140600EECFE6FFAE2BE9D735DE01D029DD0DD0D4
:10141600FD0E3514016E026AFF0E0216000E02184A
:0C14260002E1040E011801E146DE120094
:1014320070A019D097C0E9FF98C0EAFFEECF01F083
:101442000150800A0FE14BC0E9FF4CC0EAFFEECF2A
:1014520001F00150840A06E197C0E1FF98C0E2FF63
:0C1462008C0EE66E7090DF0E6816120013
:10146E000900F5CFE6FF0006FBE10106F9E11200E7
:10147E00010E386E9FC090F0A0C091F0A1C036F062
:10148E00A2C037F0A4DE010E016E0150010A01E187
:04149E00E1DE120079
:1014A2004A50010A07E16DBA05D0686A6980698805
:1014B200020E4A6E68A405D069A403D0FB0E68161A
:1014C2004BDE6DA202D05BDE78D068A018D069A096
:1014D20016D0E4DE040E4A6E200E0401026F040EE2
:1014E200036F080E016F000E0015006E00C000F4BD
:1014F2008C0E0011006E00C000F4FE0E681668A883
:1015020005D069A803D0BADEEF0E681668AC11D018
:1015120069AC0FD0730E0001B26F000EB36FB46BE3
:10152200B56B010EB66F000EB76F6AEC02F0BF0E1C
:10153200681668AA03D069AA01D07ADF68A210D01F
:1015420069A20ED0FF0E0001B26F3F0EB36FB46BF3
:10155200B56B010EB66F000EB76F6AEC02F06A6AE5
:10156200040E4A5C02E20BDE28D069A625D00001F7
:10157200AD6B040EAD5D20E268A61AD06CCF35F0DB
:10158200F70E6816780E3514016E0150000A02E15A
:10159200C9DE0DD0720E0001B26F000EB36F350EB0
:1015A200B46F000EB56FB66BB76B6AEC02F001D088
:0C15B20003D00001AD2BDDD7E2DD1200FC
:1015BE0090C0A3F091C0A4F0400E0001A56F010EE3
:0615CE00A66FD9DD12003A
:1015D4000F0EC112070EB412936A816A500E0001F5
:1015E4009F6F000EA06F400EA16F050EA26F45DF26
:1015F400E4DF005201E1FCD750C081FFF9D7FFD7E7
:1016040009022900010100803209040000020300DC
:101614000000092101010001222100070581034086
:091624000001070501034000016B
:10162D000600FF0901A10119012940150026FF003F
:10163D007508954081021901294075089540910260
:01164D00C0DC
:10164E001403530061006D00650074002000530008
:04165E0041004E00F9
:1016620012010002000000083412341201000102CB
:02167200000175
:0C1674000C0353006500720076006F004C
:041680000403090452
:020000040030CA
:0E00000000051F1EFF8381FF0FC00FE00F40A1
:00000001FF
