:0400000091EF10F07C
:1000080000C01FF001C01EF002C01DF003C01CF0AC
:1000180004C01BF005C01AF006C019F008C018F09B
:1000280009C017F00AC016F00BC015F0E1CF28F090
:10003800E2CF29F0E9CF26F0EACF27F0F3CF24F07A
:10004800F4CF25F0F5CF23F0F8CF20F0F7CF21F04B
:10005800F6CF22F093EC0DF023C0F5FF20C0F8FF97
:1000680021C0F7FF22C0F6FF24C0F3FF25C0F4FF2C
:100078001FC000F01EC001F01DC002F01CC003F03C
:100088001BC004F01AC005F019C006F018C008F02B
:1000980017C009F016C00AF015C00BF026C0E9FF1A
:0E00A80027C0EAFF28C0E1FF29C0E2FF1100D7
:1000B600000E056E040E066ED2C003F0000E046E2E
:1000C600033604360390033604360390D3C000F09B
:1000D600000E016E003601360090005003260150D6
:1000E600042203C001F004C002F00136019002367A
:1000F60001360190023601C003F002C004F004325A
:100106000332049E04BC048E04320332049E04BCF3
:10011600048E03C000F004C001F0003600900136E2
:10012600003600900136055000260650012200C018
:1001360005F001C006F000C0E1FF01C0E2FFE69E47
:100146000001D351000A12E1D2C000F0000E016E88
:100156000036009001369E0E0024E16E000E01204E
:10016600E26E05C0E6FF06C0E6FF11D0D2C000F081
:10017600000E016E003600900136A20E0024E16EDC
:10018600000E0120E26E05C0E6FF06C0E6FF05C0D0
:10019600E1FF06C0E2FFE69C040E0524E16E000EB8
:0801A6000620E26EE68C120057
:0E01AE00800E0001D211006E00C093F012000E
:1001BC00D2C090F0D3C091F0D4C094F0D5C095F0DB
:1001CC00800E0001D611006E008000C093F012006A
:1001DC00D2C090F0D3C091F0D4C092F0D5C094F0BE
:1001EC00D6C095F0800E0001D711006E00C093F0C0
:0201FC001200EF
:1001FE0020C401F01F0E01160150010A01E08BD040
:10020E0004012451000A01E086D02151060A38E18A
:10021E002DD04350010A13E1020E0001D26F220EBF
:10022E00D36F000ED46F120ED227000ED323D42319
:10023E00090ED56F000ED66F400ED76FC8DF20D0D7
:10024E004350010A0EE100012B0ED26F220ED36F26
:10025E00000ED46F210ED56F000ED66F400ED76FE5
:10026E00B6DF0ED00001D26B9BDF0AD00401235102
:10027E00210ACFE02351220AE3E02351230AF2E0C0
:10028E0020C401F0600E0116050E006E005004E051
:10029E000132019EFF0FFBD70150010A01E03BD056
:1002AE0027D039D038D04D0E0001D26F000ED36F4B
:1002BE00010ED46F000ED56F400ED66F78DF2BD0A7
:1002CE000001D26B6DDF23C44DF025D000014E0E20
:1002DE00D26F000ED36F010ED46F000ED56FD66B9A
:1002EE0066DF19D00001D26B5BDF22C44EF013D053
:1002FE0004012151010AD5E02151090AD3E021510F
:10030E00020AD1E021510A0ADBE02151030ADEE0A4
:08031E0021510B0AE7E0120077
:10032600700EE16E0F0EE26E0001CD51E126D8B0DF
:10033600E22ACEC0E6FFCEA504D0CDC0D2F0D36B64
:10034600B7DECEA305D0CDC0D2F0010ED36FB0DE9E
:02035600120093
:100358000001CE51000A12E0CDC000F0000E016E7F
:10036800003600900136A20E0024E96E000E01202E
:10037800EA6EEECF04F0EECF05F011D0CDC000F05C
:10038800000E016E0036009001369E0E0024E96EC4
:10039800000E0120EA6EEECF04F0EECF05F0020E5B
:1003A8000424E16E000E0520E26ECFC0E6FFD0C047
:1003B800E6FF010E0424E16E000E0520E26ED1C0B6
:1003C800E6FF04C0E9FF05C0EAFFEECF00F004C075
:1003D800E1FF05C0E2FF400E0014E66E04C0E9FF2D
:1003E80005C0EAFFEECF00F004C0E1FF05C0E2FF60
:1003F800880E0010E66ECE51000A1BE0CDC000F05A
:10040800000E016E003600900136A20E0024026E26
:10041800000E0120036E02C0E9FF03C0EAFF040ECC
:10042800EE18006E02C0E1FF03C0E2FF00C0E6FF65
:100438001AD0CDC000F0000E016E003600900136D3
:100448009E0E0024026E000E0120036E02C0E9FF1A
:1004580003C0EAFF040EEE18006E02C0E1FF03C0FD
:10046800E2FF00C0E6FF04C000F005C001F0120082
:100478004F5215E0010E0001CD6F1E0ECE6F4FDFFB
:10048800010ECD6FCE6B9AC0CFF09BC0D0F0400E5E
:10049800D16F5EDF00C030F001C031F014D0000130
:1004A800010ECD6F1E0ECE6F3ADF010ECD6FCE6BF3
:1004B8009AC0CFF09BC0D0F0400ED16F49DF00C08A
:0804C80030F001C031F0120018
:0804D0004F5201E094DE12001E
:1004D800C7C002F0C8C003F0CAC000F0CBC001F02A
:1004E800010E0001CA5F000ECB5B0050011009E04D
:1004F80002C0E1FF03C0E2FFC9C0E6FF024A032AC7
:04050800EBD712001B
:10050C000B6A0A6A096A00500402F4CF09F0F3CFAF
:10051C0008F001500502F4CF0BF0F3CF0AF00050B5
:10052C000502F3500926F4500A22E86A0B22015006
:10053C000402F3500926F4500A22E86A0B2208C080
:10054C0000F009C001F00AC002F00BC003F0120069
:10055C000CD08CDF3CD03BD0B5DF39D038D037D085
:10056C0036D035D0000033D032D0000E0001C8197F
:10057C0002E1010EC719EDE0000EC81902E1020EEE
:10058C00C719E9E0000EC81902E1030EC719E4E02F
:10059C00C851000A02E1730EC719E0E0C851000A05
:1005AC0002E1750EC719DBE0C851000A02E1740EB6
:1005BC00C719D6E0C8513F0A02E1FF0EC719D1E0B6
:1005CC00C851000A02E1720EC719CCE0CDD7010E5A
:0405DC00006E12009B
:1005E00004012051800AD8A479D0C00E0001936F75
:1005F0006AD00001600E006E220E016E000E026EC7
:1006000000C090F001C091F002C092F0120E946F01
:10061000000E956F63D00001030E006E000E016E98
:1006200022C404F0000E056E71DF2A0E0024E96E6C
:10063000000E0120EA6EEECF90F0EECF91F0EECFFB
:1006400092F0020E9025F66E000E9121F76E000ECC
:100650009221F86E0900F5CF00F00900F5CF01F006
:1006600000C094F001C095F039D0030E0401225D62
:1006700024E2030E006E000E016E22C404F0000E90
:10068000056E44DF330E0024E96E000E0120EA6E91
:10069000EECF90F0EECF91F0EECF92F090C0F6FF5B
:1006A00091C0F7FF92C0F8FF0900F5CF00F000C03D
:1006B00094F0000E0001956F02D00001936B0ED0F4
:1006C0000001936B0BD004012351010A92E02351E6
:0E06D000020AA1E02351030AC8E0F2D712008B
:1006DE000001938F710EC76F0F0EC86FC96B010E9D
:1006EE00CA6F000ECB6FF1DE3F0EC76F000EC86FE4
:1006FE00C96B010ECA6F000ECB6FE7DE22C443F04A
:10070E004350000A03E1100E326E0FD0200E326EEF
:10071E00010EC76F000EC86F430EC96F000ECA6F71
:0C072E00010ECB6F000ECC6F12DF12002A
:10073A0004012251010A11E120C401F01F0E011621
:10074A000150000A0AE10001938F04012151030AB2
:10075A0003E1010E426E01D0426A2251000AD8A476
:10076A008BD020C401F01F0E01160150020AD8A432
:10077A0083D024C401F00F0E01160150000AD8B428
:10078A007BD00001938F040124BF16D024C403F048
:10079A000F0E031603C000F0000E016E0036009023
:1007AA0001369E0E0024E96E000E0120EA6EEECF9D
:1007BA0004F0EECF05F015D024C403F00F0E031693
:1007CA0003C000F0000E016E003600900136A20E42
:1007DA000024E96E000E0120EA6EEECF04F0EECF9F
:1007EA0005F02151030A07E104C0E1FF05C0E2FF59
:1007FA00840EE66E41D024C400F00F0E0016700E6F
:10080A00026E0F0E036E00500226D8B0032A02C0F1
:10081A00E9FF03C0EAFFEECF00F0EECF01F000904F
:10082A0002C0E1FF03C0E2FF00C0E6FF01C0E6FF2D
:10083A0024AF11D004C0E1FF05C0E2FFE66A040E4E
:10084A000418006E00C004F004C0E1FF05C0E2FF16
:10085A00400EE66E11D004C0E1FF05C0E2FF880E2B
:10086A00E66E040E0418006E00C004F004C0E1FF36
:0A087A0005C0E2FFC80EE66E120092
:10088400000E0001955D02E1080E945D10E294C033
:1008940003F095C004F04150000A03E1010E416EDB
:1008A40005D04150010A02E1020E416E04D0080E47
:1008B400036E000E046E0001A2C0E1FFA3C0E2FFBC
:1008C400E692A2C0E1FFA3C0E2FFE690A2C0E9FF66
:1008D400A3C0EAFFEECF00F0A2C0E1FFA3C0E2FF95
:1008E40004500010E66E010EA225E16E000EA32155
:1008F400E26E03C0E6FF0350945D006E0450955908
:10090400016E00C094F001C095F0280E3C6E040EF8
:100914003D6E93B12FD0035004102BE090C0F6FF2E
:1009240091C0F7FF92C0F8FF0900F5CF00F03CC07A
:10093400E1FF3DC0E2FF00C0E6FF3C4A3D2A010E54
:100944009025006E000E9121016E000E9221026E20
:1009540000C090F001C091F002C092F0010E035C5F
:10096400006E000E0458016E00C003F001C004F0D4
:10097400D2D724D00350041021E090C0E9FF91C0E5
:10098400EAFF3CC0E1FF3DC0E2FFEECFE6FF3C4A98
:100994003D2A010E9025006E000E9121016E00C0CB
:1009A40090F001C091F0010E035C006E000E04583B
:0E09B400016E00C003F001C004F0DCD7120099
:1009C200F250026EF29E0500FF6A0150FE6E005068
:0809D200FD6E02BEF28E120060
:1009DA000401286B296B48D00001938F04012881F8
:1009EA004250010AD8B4288354D00001938F51D0C1
:1009FA000001938F040124BF16D024C403F00F0E04
:100A0A00031603C000F0000E016E00360090013696
:100A1A009E0E0024E96E000E0120EA6EEECF04F06D
:100A2A00EECF05F015D024C403F00F0E031603C051
:100A3A0000F0000E016E003600900136A20E00246E
:100A4A00E96E000E0120EA6EEECF04F0EECF05F05B
:100A5A0004C0E9FF05C0EAFFEECF01F001A403D00C
:100A6A000401010E286F15D020C401F01F0E0116D3
:100A7A000150000AB1E020C401F01F0E0116015016
:100A8A00010AB3E020C401F01F0E01160150020A48
:100A9A00AFE0000193AF07D0280E906F040E916F5C
:080AAA009381020E946F12000B
:100AB200010E00019625E96E000E9721EA6EEECF37
:100AC20000F000C0C5F0000E485C02E1C551475C71
:100AD20003E247C0C5F00AD0C551475C006E000E64
:100AE2004858016E00C047F001C048F0C66BC551BE
:100AF200C65D1CE2280EE96E040EEA6EC651E926B6
:100B0200D8B0EA2AEECF00F044C0E1FF45C0E2FFD0
:100B120000C0E6FF010E4424006E000E4520016E67
:100B220000C044F001C045F0C62BE1D7000E006EB4
:100B32004850005C02E14750000828E2010E2D24D3
:100B4200E16E000E2E20E26E080EE66E020E2D24DD
:100B5200E16E000E2E20E26E280EE66E040EE66EA8
:100B620096C0E9FF97C0EAFFEECF00F000BC07D0C5
:100B72002DC0E1FF2EC0E2FFC80EE66E06D02DC0EA
:100B8200E1FF2EC0E2FF880EE66E2BD0010E2D246F
:100B9200E16E000E2E20E26E080EE66E020E2D248D
:100BA200E16E000E2E20E26E200EE66E040EE66E60
:100BB2002DC0E1FF2EC0E2FF840EE66E000E006E35
:100BC2004C1808E100504B1805E100504A1802E1A8
:100BD2004950000A05E049C000F04AC001F0F0DEC9
:040BE200469E120019
:100BE6006D98000193BF49D046AE28D0020E2F6EF5
:100BF600010EA225E16E000EA321E26EE66AA2C0F6
:100C0600E1FFA3C0E2FFC80EE66E010E2D24E16EE1
:100C1600000E2E20E26E080EE66E020E2D24E16E08
:100C2600000E2E20E26E280EE66E040EE66E2DC035
:100C3600E1FF2EC0E2FFC80EE66E1ED0010E2D2487
:100C4600E16E000E2E20E26E080EE66E020E2D24D8
:100C5600E16E000E2E20E26E200EE66E040EE66EAB
:100C66002DC0E1FF2EC0E2FF8C0EE66EA2C0E1FFB2
:100C7600A3C0E2FF840EE66E83D046BE81D0040197
:100C860020AF56D0000195510401275D04E1000113
:100C960094510401265D04E226C494F027C495F01D
:100CA600EEDD010E2F6E010E2D24E16E000E2E20BC
:100CB600E26E080EE66E020E2D24E16E000E2E2068
:100CC600E26E200EE66E040EE66E2DC0E1FF2EC02B
:100CD600E2FF800EE66E406A010E00019625E16E87
:100CE600000E9721E26E080EE66E020E9625E16E64
:100CF600000E9721E26E200EE66E040EE66E96C09A
:100D0600E1FF97C0E2FF840EE66E010E406E020E12
:100D1600A225E16E000EA321E26E280EE66E040EF9
:100D2600E66EA2C0E1FFA3C0E2FFC80EE66E28D0C1
:100D36000001020E2F6E010EA225E16E000EA32108
:100D4600E26EE66AA2C0E1FFA3C0E2FFC80EE66E4D
:100D5600010E2D24E16E000E2E20E26E080EE66EC8
:100D6600020E2D24E16E000E2E20E26E280EE66E97
:100D7600040EE66E2DC0E1FF2EC0E2FFC80EE66E41
:020D8600120059
:100D880020C401F0600E0116050E006E005004E04C
:100D98000132019EFF0FFBD70150000A01E068D025
:100DA80044D00001938F080E326E62D015DC60D0FB
:100DB80092DC5ED0430E0001906F000E916F93811C
:100DC800010E946F938F54D004DE52D0B2DC50D011
:100DD8003F0E006E000E016E24510026D8B0012A85
:100DE80000C090F001C091F000019381010E946F52
:100DF800938F3ED00001938F3F0EE16E000EE26E9E
:100E080004012451E126D8B0E22A22C4E6FF30D0FA
:100E1800020E0001C76F000EC86FC96BCA6BCB6B9F
:100E2800CC6BAEEC02F024D023D004012151050A8A
:100E3800B8E02151060ABAE02151090AB9E0215166
:100E4800080AB8E02151000ABFE02151010ABEE0BA
:100E58002151030ABBE021510A0ABAE021510B0AC9
:100E6800C9E02151070AD4E021510C0ADDE0DCD7A2
:020E7800120066
:100E7A002F6AA2C0E1FFA3C0E2FFE66A040E0001E6
:100E8A00A219E16EA3C0E2FF000EE21AE66A46AEBC
:100E9A0013D0000E006E4C1808E100504B1805E103
:100EAA0000504A1802E14950000A05E049C000F022
:0A0EBA004AC001F081DD469E1200DF
:100EC400BDC002F0BEC003F0C0C000F0C1C001F05C
:100ED400010E0001C05F000EC15B0050011009E06B
:100EE40002C0E1FF03C0E2FFBFC0E6FF024A032ADB
:040EF400EBD7120026
:0A0EF800D08EA28AA08AF28E1200AA
:100F02002F50020A02E1D4DD1ED0B6DF4050000AA3
:100F120019E1010E2D24E16E000E2E20E26E080E64
:100F2200E66E020E2D24E16E000E2E20E26E200EE1
:100F3200E66E040EE66E2DC0E1FF2EC0E2FF8C0EBF
:080F4200E66E01D0406A1200C6
:100F4A00A2C0E9FFA3C0EAFFEECF00F0000E00BC8A
:100F5A00010E0001C46F040EA219006E00C0A2F0B7
:100F6A003250080A0AE122C46EFF6E50000803E2FA
:100F7A00100E326E02D0040E326E2F50010A2CE18E
:100F8A000001020EA225E16E000EA321E26E280ED8
:100F9A00006E040E016E00C0E6FF01C0E6FF6DDCC4
:100FAA004150020A07E1A2C0E1FFA3C0E2FF840E9A
:100FBA00E66E11D00001C451000A07E1A2C0E1FFA8
:100FCA00A3C0E2FFC80EE66E06D0A2C0E1FFA3C02E
:0C0FDA00E2FF880EE66E01D04BDF120033
:100FE600A2C0E9FFA3C0EAFFEECF00F000AE05D035
:100FF600A2C0E1FFA3C0E2FFE66A416A2F6A0001D0
:10100600946B956B936BBDDE030E0001C76F000EEC
:10101600C86FC96BCA6BCB6BCC6BAEEC02F0E0DD74
:021026001200B6
:081028000AAE029E000E120048
:0E103000026A016A006A086A036A000E120072
:10103E00020E2A6E220E2B6E000E2C6E7E0E336E5C
:10104E00220E346E000E356E720E366E220E376E16
:10105E00000E386E4C0E396E220E3A6E000E3B6E3E
:02106E0012006E
:0E107000160E6F6E9F0E6B6E7B0E696E120079
:10107E000001BE51000A12E0BDC000F0000E016E6C
:10108E00003600900136A20E0024E96E000E0120FB
:10109E00EA6EEECF04F0EECF05F011D0BDC000F039
:1010AE00000E016E0036009001369E0E0024E96E91
:1010BE00000E0120EA6EEECF04F0EECF05F0020E28
:1010CE000424E16E000E0520E26EBFC0E6FFC0C034
:1010DE00E6FF010E0424E16E000E0520E26EC1C093
:1010EE00E6FF04C0E9FF05C0EAFFEECF00F004C042
:1010FE00E1FF05C0E2FF400E0014E66E04C0E9FFFA
:10110E0005C0EAFFEECF00F004C0E1FF05C0E2FF2C
:10111E00880E0010E66EBE51000A1BE0BDC000F046
:10112E00000E016E003600900136A20E0024026EF3
:10113E00000E0120036E02C0E9FF03C0EAFF040E99
:10114E00EE18006E02C0E1FF03C0E2FF00C0E6FF32
:10115E001AD0BDC000F0000E016E003600900136B0
:10116E009E0E0024026E000E0120036E02C0E9FFE7
:10117E0003C0EAFF040EEE18006E02C0E1FF03C0CA
:10118E00E2FF00C0E6FF04C000F005C001F012004F
:10119E000B840BAEDAEF08F0010E036E026A016AE1
:0A11AE00006A0A360232FF0E12003A
:1011B8000B820BAEE6EF08F003680268016800686E
:0811C8000A360232FF0E12008C
:1011D000000E0001BE1902E1000EBD1902E1016A14
:1011E00009D0BDC0E9FFBEC0EAFFEECF00F0016A42
:0A11F00000BE012A01C000F0120049
:1011FA000001B851390806E3300EB85D03E3010E69
:08120A00006E01D0006A120021
:101212000CB04BEF09F00CA2F1EF09F00E6A000ED0
:10122200026462EF09F0F00E0214D8A42DEF09F067
:10123200023A01380F0B02260138F00B016E00381A
:101242000F0B01260038F00B006E08380F0B00263A
:101252000838F00B086E0E84D89002BE46EF09F0F3
:1012620008360036013602360E2A02BE46EF09F073
:1012720008360036013602360E2A02BE46EF09F063
:1012820008360036013602360E2A0E500364E7EFA6
:1012920009F0035E0BBC08AEECEF09F0D880800EBB
:1012A20008640030000E002201220222D8A0ECEFD6
:1012B20009F0023201320032034AF1EF09F0ECEF99
:1012C20009F001C002F000C001F008C000F0086A95
:1012D200000E0E86026499EF09F0F00E0214D8A4F3
:1012E20081EF09F0023A01380F0B02260138F00BA8
:1012F200016E00380F0B01260038F00B006E0E84D1
:10130200D89002BE46EF09F00036013602360E2AA8
:1013120002BE46EF09F00036013602360E2A02BE40
:1013220046EF09F00036013602360E2A46EF09F082
:1013320001C002F000C001F0006A000E0E960E8895
:101342000264C6EF09F0F00E0214D8A4B1EF09F05E
:10135200023A01380F0B02260138F00B016E0E849F
:10136200D89002BE46EF09F0013602360E2A02BEBE
:1013720046EF09F0013602360E2A02BE46EF09F0A8
:10138200013602360E2A46EF09F001C002F0016A68
:10139200000E0E860264F6EF09F0F00E0214D8A4D5
:1013A200D5EF09F0023A0E84D89002BE46EF09F05A
:1013B20002360E2A02BE46EF09F002360E2A02BE9D
:1013C20046EF09F002360E2A46EF09F0010E0C6EC6
:1013D200E5DEF9EF09F0020E0C6E25DEF9EF09F0F9
:1013E200040E0C6EE8DEF9EF09F0080E0C6E1FDE3B
:0213F2001200E7
:1013F4000B800BAE06EF0AF0026A0AAEFF0E026E15
:0C140400016E006E0A360232FF0E12006C
:101410000C6A0E6A0250D8A421EF0AF001C002F053
:1014200000C001F0006A0E860250D8A421EF0AF035
:1014300001C002F0016A0E960E880250D8B433EF54
:101440000AF00E50035ED8A4D8A038EF0AF0D89066
:1014500002BE3DEF0AF0003601360236032E28EFB9
:101460000AF038EF0AF0010E0C6EE2DD40EF0AF0F0
:10147000020E0C6E94DE40EF0AF0040E0C6ED4DD0A
:02148000120058
:10148200086A080E0C6E003408360450085ED8B0A4
:0E14920002D00826D89000360C2EF5D7120096
:1014A0003250000A0AE16D6A696AE2DD25DD6DB637
:0C14B00002D06D86FCD7010E326E1200D7
:1014BC00200E325C03E36DB201D002D0006A23D05F
:1014CC0030C0BDF031C0BEF07DDE00521BE1010E1C
:1014DC003024E96E000E3120EA6EEECF00F000C031
:1014EC00BCF0BBC0BDF0BE6BB8C0BFF0B9C0C0F0A3
:1014FC00BAC0C1F0BEDD00C030F001C031F0BCC0DC
:08150C0000F001D0006A12009A
:1015140094DD306A316A00019C6B9D6B6A6A686A6B
:10152400A5DD6D8C6E6A710EBD6F0F0EBE6FBF6B45
:10153400010EC06F000EC16FC3DC6D9CB86B080E4A
:10154400B85D16E2B8C000F0000E016E00360090DF
:101554000136003600900136000E0024E16E040EC0
:101564000120E26EE66AE66AE66AE66AB82BE7D725
:10157400160E706E68A603D0F70E6816FBD7936B31
:10158400466A476A486A6D98080EA26F040EA36FF4
:06159400436A326A1200F6
:10159A006984EF0E68166D82750E0001C76F000E22
:1015AA00C86FC96BCA6BCB6BCC6BAEEC02F0120086
:1015BA00FD0E3E14016E026AFF0E0216000E02189C
:1015CA0002E1000E01186CE17E0E3E14016E01C0AC
:1015DA0003F00332039E03C000F0000E016E0036D2
:1015EA0000900136003600900136000E0024026E8B
:1015FA00040E0120036E02C096F003C097F002C0E9
:10160A002DF003C02EF0040E2D18006E00C02DF030
:10161A0002C0E9FF03C0EAFFEECF00F000C001F00C
:10162A003C0E01160132019E0132019E01500D0A43
:10163A0035E1020E00019625E96E000E9721EA6E49
:10164A00EECF01F0EECF02F00250040A02E1280EBA
:10165A00011822E1020E9625E16E000E9721E26E34
:10166A00200EE66E040EE66EC36B080EC35D14E22E
:10167A00200EE16E040EE26EC351E126D8B0E22AD2
:10168A00280EE96E040EEA6EC351E926D8B0EA2A9A
:10169A00EECFE6FFC32BE9D7A1DC01D02DDC0DD0BC
:1016AA00FD0E3E14016E026AFF0E0216000E0218AB
:0C16BA0002E1040E011801E143DC120003
:1016C60070A019D096C0E9FF97C0EAFFEECF01F0EF
:1016D6000150800A0FE1A2C0E9FFA3C0EAFFEECFE6
:1016E60001F00150840A06E196C0E1FF97C0E2FFCF
:0C16F6008C0EE66E7090DF0E681612007D
:101702009DDC306A316A00019C6B9D6B6A6A686A73
:10171200AEDC6D8C6E6A710EC76F0F0EC86FC96B2F
:10172200010ECA6F000ECB6F6CEC02F06D9CC36BA6
:10173200080EC35D16E2C3C000F0000E016E003653
:1017420000900136003600900136000E0024E16E52
:10175200040E0120E26EE66AE66AE66AE66AC32BD6
:10176200E7D7160E706E68A603D0F70E6816FBD781
:10177200936B466A476A486A6D98080EA26F040E18
:08178200A36F436A326A1200F2
:08178A000B6A0B86FF0E120032
:04179200A19A120006
:10179600740E0001C76F000EC86FC96BCA6BCB6BA6
:1017A600CC6BAEEC02F06D92699468A403D0FB0E8C
:0617B6006816FBD71200CB
:1017BC00010E4F6EB0C09AF0B1C09BF0B2C098F061
:1017CC00B3C099F0A1DE010E016E0150010A01E1D6
:0417DC0061DE1200B8
:1017E000B0C0E9FFB1C0EAFFEECFB2F0000E0001D9
:1017F000B36F000EB36F000EB31902E1200EB219E1
:1018000007E0000EB31902E1090EB21901E003D09E
:10181000B04BB12BE5D7B46BB56BB66BB76B000EA5
:10182000B31902E12D0EB21905E1B64BB72BB04B3F
:10183000B12B08D0000EB31902E12B0EB21902E150
:10184000B04BB12BB0C0E9FFB1C0EAFFEECFB2F0B0
:10185000000EB36F000EB36FB2C0B8F0CEDC005212
:1018600019E0B4C000F0B5C001F00A0E046E000E1D
:10187000056E86EC02F0300EB25D026E000EB359BA
:10188000036E02500024B46F03500120B56FB04BBB
:10189000B12BD8D7B651B71108E0B4510008006E8B
:1018A000B5C001F0000E015604D0B4C000F0B5C0C0
:0418B00001F0120031
:1018B4000900F5CFE6FF0006FBE10106F9E112009D
:1018C4000B6A0350D8B4A8EF0CF002500A6E028ED3
:1018D4008E0E035E03AEACEF0CF0036C080E035CDB
:1018E400D8A087EF0CF0036E013602C001F0026A43
:1018F400080E035CD8A087EF0CF0036E0136016A72
:101904000350D8A4D89091EF0CF00350D8B491EFC1
:101914000CF0D89002320132032E8BEF0CF00BBC8A
:1019240001A09EEF0CF0D8A09EEF0CF0012AD8B4D1
:10193400022A02BEBBEF0CF00AAEC0EF0CF0021E8E
:10194400011E012AD8B4022AC0EF0CF0026A016A0F
:10195400C0EF0CF00B800BAEC4EF0CF0026A0AAEC1
:10196400C4EF0CF0FF0E026E016E0A360232C4EFB1
:101974000CF0010E0C6E3CDDC6EF0CF0000E0C6E8C
:10198400C6EF0CF0FF0E0C6E0150006E0250016E9B
:0219940012003F
:101996000450000A12E10550000A0FE10650000A41
:1019A6000CE10750000A09E1FF0E006EFF0E016E02
:1019B6007F0E026EFF0E036EA7D0086A096A0750F3
:1019C600D8B476EF0DF00350D8B47AEF0DF002508C
:1019D60006180A6E028E068E0E6A02C008F001C054
:1019E6000CF000C00DF004500D5E0550D8A0053C6B
:1019F6000C5E0650D8A0063C085E086A0C6A0D6AA2
:101A0600D8A00DEF0DF0D890023201320032083224
:101A1600010E0E6E0750035ED8A01AEF0DF07E0E73
:101A26000E240326D8B07FEF0DF020EF0DF07E0ECA
:101A36000E240326D8A084EF0DF0180E0B6E0D367B
:101A46000C3608360036013602360E360450005E75
:101A56000550D8A0053C015E0650D8A0063C025EA3
:101A660006340E120EA03BEF0DF00D8046EF0DF082
:101A7600045000260550D8B0053C01260650D8B0C3
:101A8600062802260D900B2E22EF0DF06CEF0DF0BE
:101A9600D8900036013602360E360450005E0550E8
:101AA600D8A0053C015E0650D8A0063C025E06346E
:101AB6000E10010B0D26D8B00C2AD8B4082AD8A4CB
:101AC6006CEF0DF008320C320D32032AD8B47FEFDA
:101AD6000DF00AAE089E0850026E0C50016E0D50B5
:101AE600006E87EF0DF0010E4DDE87EF0DF0020E52
:101AF60018EC08F087EF0DF0040EDCEC08F087EF29
:0A1B06000DF0080ECFEC08F01200FD
:101B10009AC0B8F09BC0B9F0400E0001BA6F010E38
:061B2000BB6FCCDC1200DB
:101B26003250010A07E16DBA05D0686A6980698892
:101B3600020E326E68A405D069A403D0FB0E6816A7
:101B460027DE6DA202D022DE78D068A018D069A068
:101B560016D0D4DD040E326E200E0401026F040E80
:101B6600036F080E016F000E0015006E00C000F432
:101B76008C0E0011006E00C000F4FE0E681668A8F8
:101B860005D069A803D006DDEF0E681668AC11D043
:101B960069AC0FD0730E0001C76F000EC86FC96B1A
:101BA600CA6B010ECB6F000ECC6FAEEC02F0BF0E0F
:101BB600681668AA03D069AA01D082DD68A210D08F
:101BC60069A20ED0FF0E0001C76F3F0EC86FC96B2A
:101BD600CA6B010ECB6F000ECC6FAEEC02F06A6AD8
:101BE600040E325C02E2D2DD28D069A625D00001BF
:101BF600C26B040EC25D20E268A61AD06CCF3EF01E
:101C0600F70E6816780E3E14016E0150000A02E1C6
:101C1600D1DC0DD0720E0001C76F000EC86F3E0EEC
:101C2600C96F000ECA6FCB6BCC6BAEEC02F001D065
:0C1C360003D00001C22BDDD7A9DD120095
:101C4200025006180E6E086A096A0B6A035007648E
:101C520014EF0FF006500A6E068E028E03500B6EC2
:101C62000750036E000E0B6464EF0EF00B50075E1C
:101C7200D8B405EF0FF0070E0764D3EF0EF0075E3E
:101C820000C008F001C000F002C001F0026A074E75
:101C920005EF0FF00764A8EF0EF0075E00C008F032
:101CA20001C000F0016A074E05EF0FF0076486EFEE
:101CB2000EF0075E00C008F0006A074E05EF0FF055
:101CC20007646DEF0EF00AC002F005C001F004C017
:101CD20000F0086A31EF10F0030E076478EF0EF09F
:101CE200075E08380F0B086E074E05EF0FF0D8900D
:101CF2000832074E05EF0FF0D8900832074E05EF75
:101D02000FF0D890083205EF0FF0030E076497EF3B
:101D12000EF0075E08380F0B086E0038F00B08262D
:101D220000380F0B006E074E05EF0FF0D89000320F
:101D32000832074E05EF0FF0D89000320832074EF6
:101D420005EF0FF0D8900032083205EF0FF0030EC6
:101D52000764BFEF0EF0075E08380F0B086E0038FD
:101D6200F00B082600380F0B006E0138F00B00262E
:101D720001380F0B016E074E05EF0FF0D8900132BC
:101D820000320832074E05EF0FF0D89001320032D0
:101D92000832074E05EF0FF0D890013200320832B8
:101DA20005EF0FF0030E0764F0EF0EF0075E083840
:101DB2000F0B086E0038F00B082600380F0B006E70
:101DC2000138F00B002601380F0B016E0238F00BC0
:101DD200012602380F0B026E074E05EF0FF0D89066
:101DE2000232013200320832074E05EF0FF0D8906E
:101DF2000232013200320832074E05EF0FF0D8905E
:101E02000232013200320832096A000E0EAEF9EFD8
:101E12000FF0081E001E011E021E082A00220122C7
:101E22000222F9EF0FF00750D8A41AEF0FF031EFAA
:101E320010F0096A02C00AF0028E068E0750035C97
:101E4200076ED8B4ECEF0FF0070E0764BAEF0FF08D
:101E5200075E0450096E0550046E0650056E066A50
:101E6200074EECEF0FF0070E07648FEF0FF0075EDF
:101E72000450096E0550046E056A074EECEF0FF030
:101E8200070E07646DEF0FF0075E0450096E046AD7
:101E9200074EECEF0FF0070E076454EF0FF00AC085
:101EA20002F031EF10F0030E07645FEF0FF0075EF0
:101EB20009380F0B096E074EECEF0FF0D89009327C
:101EC200074EECEF0FF0D8900932074EECEF0FF00F
:101ED200D8900932ECEF0FF0030E07647EEF0FF09B
:101EE200075E09380F0B096E0438F00B0926043817
:101EF2000F0B046E074EECEF0FF0D890043209324C
:101F0200074EECEF0FF0D89004320932074EECEF97
:101F12000FF0D89004320932ECEF0FF0030E076491
:101F2200A6EF0FF0075E09380F0B096E0438F00BAD
:101F3200092604380F0B046E0538F00B0426053809
:101F42000F0B056E074EECEF0FF0D89005320432FE
:101F52000932074EECEF0FF0D89005320432093205
:101F6200074EECEF0FF0D890053204320932ECEF55
:101F72000FF0030E0764D7EF0FF0075E09380F0B5F
:101F8200096E0438F00B092604380F0B046E05386D
:101F9200F00B042605380F0B056E0638F00B0526EC
:101FA20006380F0B066E074EECEF0FF0D890063294
:101FB200053204320932074EECEF0FF0D8900632A8
:101FC200053204320932074EECEF0FF0D890063298
:101FD200053204320932086A000E0EAEF9EF0FF034
:101FE200091E041E051E061E092A042205220622B7
:101FF20009500826045000220550012206500222F0
:102002000EBE10EF10F0D8A01FEF10F00232013216
:1020120000320832033E1FEF10F02BEF10F0D8B061
:1020220025EF10F0000E081E001E011E021E082AD7
:102032000022012202220A7E25EF10F0010E0C6E10
:1020420009EC09F033EF10F0020E0C6E09EC09F006
:1020520033EF10F0040E0C6EDCEC08F033EF10F0EE
:06206200000E0C6E1200DE
:1020680000C008F00150006E016A026A036A0B6A38
:102078000C6A016A026A036A960E036E0A6A00AE67
:102088004CEF10F0081E001E082AD8B4002A0A8E49
:1020980000C001F008C000F0086A026A08EC0AF003
:0220A800120024
:1020AA000001B36B030EB35D0AE2B351B125E16ED1
:1020BA00000EB221E26E200EE66EB32BF3D7B351B7
:1020CA00B125E16E000EB221E26EE66AB307B351A2
:1020DA00B125B46F000EB221B56F0A0E046EB0C0FE
:1020EA0000F041EC0AF008C000F0300E0026B4C03F
:1020FA00E1FFB5C0E2FF00C0E6FF0A0E046EB0C001
:10210A0000F041EC0AF000C0B0F00050000A01E112
:08211A0002D0B307DCD712006C
:102122000F0EC112070EB412956A936A816A500E9D
:102132000001B06F000EB16F400EB26F050EB36FAB
:10214200DEEC0BF050C0B0F0A60E0001B16F000E35
:10215200B26FAADFA60EB06F000EB16FF0EC0BF0FB
:1021620000C0AAF001C0ABF07EDFFE0E046EC10E0D
:10217200056E270E066E800E076E0CDC000E046ED6
:10218200000E056E020E066E850E076E59DD62ECBC
:102192000CF000C0AAF001C0ABF00050C80800016A
:1021A200AC6F01C0ADF0000EAD57B1DC005224E1BE
:1021B2000001AE6BAF6B800EAF19006E800EAD19D1
:1021C200005C02E1AC51AE5D04E20000AE4BAF2B0D
:1021D200F2D78380AE6BAF6B800EAF19006E800EAC
:1021E200AB19005C02E1AA51AE5D04E20000AE4B05
:1021F200AF2BF2D78390D9D750C081FFA3D7FFD797
:1022020009022900010100803209040000020300D2
:10221200000009210101000122210007058103407C
:0922220000010705010340000161
:10222B000600FF0901A10119012940150026FF0035
:10223B007508954081021901294075089540910256
:01224B00C0D2
:10224C001403530061006D006500740020005300FE
:04225C0041004E00EF
:1022600012010002000000083412341201000102C1
:0222700000016B
:0C2272000C0353006500720076006F0042
:04227E000403090448
:020000040030CA
:0E00000000CE391EFF8381FF0FC00FE00F40BE
:00000001FF
